{
  "contractName": "ToDo",
  "abi": [
    {
      "inputs": [],
      "stateMutability": "nonpayable",
      "type": "constructor"
    },
    {
      "anonymous": false,
      "inputs": [
        {
          "indexed": false,
          "internalType": "uint256",
          "name": "lastTaskId",
          "type": "uint256"
        },
        {
          "indexed": false,
          "internalType": "uint256",
          "name": "date",
          "type": "uint256"
        },
        {
          "indexed": false,
          "internalType": "string",
          "name": "content",
          "type": "string"
        },
        {
          "indexed": false,
          "internalType": "string",
          "name": "author",
          "type": "string"
        },
        {
          "indexed": false,
          "internalType": "bool",
          "name": "done",
          "type": "bool"
        }
      ],
      "name": "TaskCreated",
      "type": "event"
    },
    {
      "anonymous": false,
      "inputs": [
        {
          "indexed": false,
          "internalType": "uint256",
          "name": "id",
          "type": "uint256"
        },
        {
          "indexed": false,
          "internalType": "bool",
          "name": "done",
          "type": "bool"
        },
        {
          "indexed": false,
          "internalType": "uint256",
          "name": "dateComplete",
          "type": "uint256"
        }
      ],
      "name": "TaskStatusToggled",
      "type": "event"
    },
    {
      "inputs": [
        {
          "internalType": "string",
          "name": "_content",
          "type": "string"
        },
        {
          "internalType": "string",
          "name": "_author",
          "type": "string"
        }
      ],
      "name": "createTask",
      "outputs": [],
      "stateMutability": "nonpayable",
      "type": "function"
    },
    {
      "inputs": [
        {
          "internalType": "uint256",
          "name": "id",
          "type": "uint256"
        }
      ],
      "name": "getTask",
      "outputs": [
        {
          "internalType": "uint256",
          "name": "",
          "type": "uint256"
        },
        {
          "internalType": "uint256",
          "name": "",
          "type": "uint256"
        },
        {
          "internalType": "string",
          "name": "",
          "type": "string"
        },
        {
          "internalType": "string",
          "name": "",
          "type": "string"
        },
        {
          "internalType": "bool",
          "name": "",
          "type": "bool"
        },
        {
          "internalType": "uint256",
          "name": "",
          "type": "uint256"
        }
      ],
      "stateMutability": "view",
      "type": "function",
      "constant": true
    },
    {
      "inputs": [
        {
          "internalType": "uint256",
          "name": "id",
          "type": "uint256"
        }
      ],
      "name": "toggleDone",
      "outputs": [],
      "stateMutability": "nonpayable",
      "type": "function"
    },
    {
      "inputs": [],
      "name": "getTaskIds",
      "outputs": [
        {
          "internalType": "uint256[]",
          "name": "",
          "type": "uint256[]"
        }
      ],
      "stateMutability": "view",
      "type": "function",
      "constant": true
    }
  ],
  "bytecode": "0x608060405234801561001057600080fd5b5060008081905550610b93806100276000396000f3fe608060405234801561001057600080fd5b506004361061004c5760003560e01c80631d65e77e14610051578063292a458514610086578063bcd14805146100a2578063d81ef739146100c0575b600080fd5b61006b600480360381019061006691906106cb565b6100dc565b60405161007d9695949392919061088a565b60405180910390f35b6100a0600480360381019061009b919061065f565b6102b7565b005b6100aa610401565b6040516100b791906107d0565b60405180910390f35b6100da60048036038101906100d591906106cb565b610459565b005b6000806060806000808660006002600083815260200190815260200160002060000154141561010a57600080fd5b87600260008a815260200190815260200160002060010154600260008b8152602001908152602001600020600201600260008c8152602001908152602001600020600301600260008d815260200190815260200160002060040160009054906101000a900460ff16600260008e815260200190815260200160002060050154838054610195906109fc565b80601f01602080910402602001604051908101604052809291908181526020018280546101c1906109fc565b801561020e5780601f106101e35761010080835404028352916020019161020e565b820191906000526020600020905b8154815290600101906020018083116101f157829003601f168201915b50505050509350828054610221906109fc565b80601f016020809104026020016040519081016040528092919081815260200182805461024d906109fc565b801561029a5780601f1061026f5761010080835404028352916020019161029a565b820191906000526020600020905b81548152906001019060200180831161027d57829003601f168201915b505050505092509650965096509650965096505091939550919395565b6000808154809291906102c990610a5f565b91905055506040518060c001604052806000548152602001428152602001838152602001828152602001600015158152602001600081525060026000805481526020019081526020016000206000820151816000015560208201518160010155604082015181600201908051906020019061034592919061053f565b50606082015181600301908051906020019061036292919061053f565b5060808201518160040160006101000a81548160ff02191690831515021790555060a08201518160050155905050600160005490806001815401808255809150506001900390600052602060002001600090919091909150557fb322bdd3250d405f7845d27fa1f0753f8f7e18e40886bc254b89005c3e9c032460005442848460006040516103f5959493929190610829565b60405180910390a15050565b6060600180548060200260200160405190810160405280929190818152602001828054801561044f57602002820191906000526020600020905b81548152602001906001019080831161043b575b5050505050905090565b8060006002600083815260200190815260200160002060000154141561047e57600080fd5b60006002600084815260200190815260200160002090508060040160009054906101000a900460ff16158160040160006101000a81548160ff0219169083151502179055508060040160009054906101000a900460ff166104e05760006104e2565b425b81600501819055507fcb1ceae718a6ae11d5daf00e292e318717e0acf2d326ed670df0e5ff67ba5000838260040160009054906101000a900460ff168360050154604051610532939291906107f2565b60405180910390a1505050565b82805461054b906109fc565b90600052602060002090601f01602090048101928261056d57600085556105b4565b82601f1061058657805160ff19168380011785556105b4565b828001600101855582156105b4579182015b828111156105b3578251825591602001919060010190610598565b5b5090506105c191906105c5565b5090565b5b808211156105de5760008160009055506001016105c6565b5090565b60006105f56105f08461091e565b6108f9565b90508281526020810184848401111561060d57600080fd5b6106188482856109ba565b509392505050565b600082601f83011261063157600080fd5b81356106418482602086016105e2565b91505092915050565b60008135905061065981610b46565b92915050565b6000806040838503121561067257600080fd5b600083013567ffffffffffffffff81111561068c57600080fd5b61069885828601610620565b925050602083013567ffffffffffffffff8111156106b557600080fd5b6106c185828601610620565b9150509250929050565b6000602082840312156106dd57600080fd5b60006106eb8482850161064a565b91505092915050565b600061070083836107b2565b60208301905092915050565b60006107178261095f565b6107218185610982565b935061072c8361094f565b8060005b8381101561075d57815161074488826106f4565b975061074f83610975565b925050600181019050610730565b5085935050505092915050565b610773816109a4565b82525050565b60006107848261096a565b61078e8185610993565b935061079e8185602086016109c9565b6107a781610b35565b840191505092915050565b6107bb816109b0565b82525050565b6107ca816109b0565b82525050565b600060208201905081810360008301526107ea818461070c565b905092915050565b600060608201905061080760008301866107c1565b610814602083018561076a565b61082160408301846107c1565b949350505050565b600060a08201905061083e60008301886107c1565b61084b60208301876107c1565b818103604083015261085d8186610779565b905081810360608301526108718185610779565b9050610880608083018461076a565b9695505050505050565b600060c08201905061089f60008301896107c1565b6108ac60208301886107c1565b81810360408301526108be8187610779565b905081810360608301526108d28186610779565b90506108e1608083018561076a565b6108ee60a08301846107c1565b979650505050505050565b6000610903610914565b905061090f8282610a2e565b919050565b6000604051905090565b600067ffffffffffffffff82111561093957610938610b06565b5b61094282610b35565b9050602081019050919050565b6000819050602082019050919050565b600081519050919050565b600081519050919050565b6000602082019050919050565b600082825260208201905092915050565b600082825260208201905092915050565b60008115159050919050565b6000819050919050565b82818337600083830152505050565b60005b838110156109e75780820151818401526020810190506109cc565b838111156109f6576000848401525b50505050565b60006002820490506001821680610a1457607f821691505b60208210811415610a2857610a27610ad7565b5b50919050565b610a3782610b35565b810181811067ffffffffffffffff82111715610a5657610a55610b06565b5b80604052505050565b6000610a6a826109b0565b91507fffffffffffffffffffffffffffffffffffffffffffffffffffffffffffffffff821415610a9d57610a9c610aa8565b5b600182019050919050565b7f4e487b7100000000000000000000000000000000000000000000000000000000600052601160045260246000fd5b7f4e487b7100000000000000000000000000000000000000000000000000000000600052602260045260246000fd5b7f4e487b7100000000000000000000000000000000000000000000000000000000600052604160045260246000fd5b6000601f19601f8301169050919050565b610b4f816109b0565b8114610b5a57600080fd5b5056fea26469706673582212203d2cbec8eabac60678ed4a7275342275696e7f59e2bff65e5ce9dbe4d3773d2064736f6c63430008040033",
  "immutableReferences": {},
  "source": "pragma solidity =0.8.4;\n\ncontract ToDo {\n\tstruct Task {\n\t\tuint id;\n\t\tuint date;\n\t\tstring content;\n\t\tstring author;\n\t\tbool done;\n\t\tuint dateComplete;\n\t}\n\n\tuint lastTaskId;\n\tuint[] taskIds;\n\tmapping(uint => Task) tasks;\n\t\n\tevent TaskCreated(\n\t\t\tuint lastTaskId,\n\t\t\tuint date,\n\t\t       \tstring content,\n\t\t       \tstring author,\n\t\t       \tbool done\n\t\t\t);\n\tevent TaskStatusToggled(\n\t\t\tuint id,\n\t\t\tbool done,\n\t\t\tuint dateComplete\n\t\t\t);\n\n\tconstructor() public {\n\t\tlastTaskId = 0;\n\t}\n\tfunction createTask(string memory _content, string memory _author) public {\n\t\tlastTaskId++;\n\t\ttasks[lastTaskId] = Task(lastTaskId, block.timestamp, _content, _author, false, 0);\n\t\ttaskIds.push(lastTaskId);\t\n\t\temit TaskCreated(lastTaskId, block.timestamp, _content, _author, false);\n\t}\n\tfunction getTask(uint id) taskExists(id) public view \n\t\treturns (\n\t\t\tuint,\n\t\t\tuint,\n\t\t\tstring memory,\n\t\t\tstring memory,\n\t\t\tbool,\n\t\t\tuint\n\t\t) {\n\n\t\t\treturn(\n\t\t\t\tid,\n\t\t\t\ttasks[id].date,\n\t\t\t\ttasks[id].content,\n\t\t\t\ttasks[id].author,\n\t\t\t\ttasks[id].done,\n\t\t\t\ttasks[id].dateComplete\n\t\t\t);\n\t\t}\n\t\n\tfunction toggleDone(uint id) taskExists(id) public {\n\t\tTask storage task = tasks[id]; //pointer\n\t\ttask.done = !task.done;\n\t\ttask.dateComplete = task.done ? block.timestamp: 0;\n\t\temit TaskStatusToggled(id, task.done, task.dateComplete);\n\t\t\n\t}\n\n\tfunction getTaskIds() public view returns(uint[] memory) {\n\t\treturn taskIds;\n\t}\n\n\t\n\tmodifier taskExists(uint id) {\n\t\tif(tasks[id].id == 0) {\n\t\t\trevert();\n\t\t}\n\t\t_;\n\t\n\t}\n\n}\n",
  "sourcePath": "/opt/Solidity/truffle_project_example/contracts/todo.sol",
  "compiler": {
    "name": "solc",
    "version": "0.8.4+commit.c7e474f2.Emscripten.clang"
  },
  "schemaVersion": "3.4.2",
  "updatedAt": "2021-09-01T00:00:43.124Z",
  "networkType": "ethereum",
  "devdoc": {
    "kind": "dev",
    "methods": {},
    "version": 1
  },
  "userdoc": {
    "kind": "user",
    "methods": {},
    "version": 1
  }
}